{
  "_format": "hh3-artifact-1",
  "contractName": "FakeBTC",
  "sourceName": "contracts/BTC.sol",
  "abi": [
    {
      "inputs": [],
      "stateMutability": "nonpayable",
      "type": "constructor"
    },
    {
      "inputs": [
        {
          "internalType": "address",
          "name": "",
          "type": "address"
        }
      ],
      "name": "balanceOf",
      "outputs": [
        {
          "internalType": "uint256",
          "name": "",
          "type": "uint256"
        }
      ],
      "stateMutability": "view",
      "type": "function"
    },
    {
      "inputs": [],
      "name": "name",
      "outputs": [
        {
          "internalType": "string",
          "name": "",
          "type": "string"
        }
      ],
      "stateMutability": "view",
      "type": "function"
    },
    {
      "inputs": [],
      "name": "symbol",
      "outputs": [
        {
          "internalType": "string",
          "name": "",
          "type": "string"
        }
      ],
      "stateMutability": "view",
      "type": "function"
    },
    {
      "inputs": [],
      "name": "totalSupply",
      "outputs": [
        {
          "internalType": "uint256",
          "name": "",
          "type": "uint256"
        }
      ],
      "stateMutability": "view",
      "type": "function"
    },
    {
      "inputs": [
        {
          "internalType": "address",
          "name": "to",
          "type": "address"
        },
        {
          "internalType": "uint256",
          "name": "amount",
          "type": "uint256"
        }
      ],
      "name": "transfer",
      "outputs": [],
      "stateMutability": "nonpayable",
      "type": "function"
    }
  ],
  "bytecode": "0x60806040526040518060400160405280600781526020017f426974636f696e000000000000000000000000000000000000000000000000008152505f90816100479190610327565b506040518060400160405280600381526020017f42544300000000000000000000000000000000000000000000000000000000008152506001908161008c9190610327565b506301406f406002553480156100a0575f5ffd5b5060025460035f3373ffffffffffffffffffffffffffffffffffffffff1673ffffffffffffffffffffffffffffffffffffffff1681526020019081526020015f20819055506103f6565b5f81519050919050565b7f4e487b71000000000000000000000000000000000000000000000000000000005f52604160045260245ffd5b7f4e487b71000000000000000000000000000000000000000000000000000000005f52602260045260245ffd5b5f600282049050600182168061016557607f821691505b60208210810361017857610177610121565b5b50919050565b5f819050815f5260205f209050919050565b5f6020601f8301049050919050565b5f82821b905092915050565b5f600883026101da7fffffffffffffffffffffffffffffffffffffffffffffffffffffffffffffffff8261019f565b6101e4868361019f565b95508019841693508086168417925050509392505050565b5f819050919050565b5f819050919050565b5f61022861022361021e846101fc565b610205565b6101fc565b9050919050565b5f819050919050565b6102418361020e565b61025561024d8261022f565b8484546101ab565b825550505050565b5f5f905090565b61026c61025d565b610277818484610238565b505050565b5b8181101561029a5761028f5f82610264565b60018101905061027d565b5050565b601f8211156102df576102b08161017e565b6102b984610190565b810160208510156102c8578190505b6102dc6102d485610190565b83018261027c565b50505b505050565b5f82821c905092915050565b5f6102ff5f19846008026102e4565b1980831691505092915050565b5f61031783836102f0565b9150826002028217905092915050565b610330826100ea565b67ffffffffffffffff811115610349576103486100f4565b5b610353825461014e565b61035e82828561029e565b5f60209050601f83116001811461038f575f841561037d578287015190505b610387858261030c565b8655506103ee565b601f19841661039d8661017e565b5f5b828110156103c45784890151825560018201915060208501945060208101905061039f565b868310156103e157848901516103dd601f8916826102f0565b8355505b6001600288020188555050505b505050505050565b61069b806104035f395ff3fe608060405234801561000f575f5ffd5b5060043610610055575f3560e01c806306fdde031461005957806318160ddd1461007757806370a082311461009557806395d89b41146100c5578063a9059cbb146100e3575b5f5ffd5b6100616100ff565b60405161006e91906103cb565b60405180910390f35b61007f61018a565b60405161008c9190610403565b60405180910390f35b6100af60048036038101906100aa919061047a565b610190565b6040516100bc9190610403565b60405180910390f35b6100cd6101a5565b6040516100da91906103cb565b60405180910390f35b6100fd60048036038101906100f891906104cf565b610231565b005b5f805461010b9061053a565b80601f01602080910402602001604051908101604052809291908181526020018280546101379061053a565b80156101825780601f1061015957610100808354040283529160200191610182565b820191905f5260205f20905b81548152906001019060200180831161016557829003601f168201915b505050505081565b60025481565b6003602052805f5260405f205f915090505481565b600180546101b29061053a565b80601f01602080910402602001604051908101604052809291908181526020018280546101de9061053a565b80156102295780601f1061020057610100808354040283529160200191610229565b820191905f5260205f20905b81548152906001019060200180831161020c57829003601f168201915b505050505081565b8060035f3373ffffffffffffffffffffffffffffffffffffffff1673ffffffffffffffffffffffffffffffffffffffff1681526020019081526020015f205410156102b1576040517f08c379a00000000000000000000000000000000000000000000000000000000081526004016102a8906105b4565b60405180910390fd5b8060035f3373ffffffffffffffffffffffffffffffffffffffff1673ffffffffffffffffffffffffffffffffffffffff1681526020019081526020015f205f8282546102fd91906105ff565b925050819055508060035f8473ffffffffffffffffffffffffffffffffffffffff1673ffffffffffffffffffffffffffffffffffffffff1681526020019081526020015f205f8282546103509190610632565b925050819055505050565b5f81519050919050565b5f82825260208201905092915050565b8281835e5f83830152505050565b5f601f19601f8301169050919050565b5f61039d8261035b565b6103a78185610365565b93506103b7818560208601610375565b6103c081610383565b840191505092915050565b5f6020820190508181035f8301526103e38184610393565b905092915050565b5f819050919050565b6103fd816103eb565b82525050565b5f6020820190506104165f8301846103f4565b92915050565b5f5ffd5b5f73ffffffffffffffffffffffffffffffffffffffff82169050919050565b5f61044982610420565b9050919050565b6104598161043f565b8114610463575f5ffd5b50565b5f8135905061047481610450565b92915050565b5f6020828403121561048f5761048e61041c565b5b5f61049c84828501610466565b91505092915050565b6104ae816103eb565b81146104b8575f5ffd5b50565b5f813590506104c9816104a5565b92915050565b5f5f604083850312156104e5576104e461041c565b5b5f6104f285828601610466565b9250506020610503858286016104bb565b9150509250929050565b7f4e487b71000000000000000000000000000000000000000000000000000000005f52602260045260245ffd5b5f600282049050600182168061055157607f821691505b6020821081036105645761056361050d565b5b50919050565b7f4e6f7420656e6f7567682062616c616e636500000000000000000000000000005f82015250565b5f61059e601283610365565b91506105a98261056a565b602082019050919050565b5f6020820190508181035f8301526105cb81610592565b9050919050565b7f4e487b71000000000000000000000000000000000000000000000000000000005f52601160045260245ffd5b5f610609826103eb565b9150610614836103eb565b925082820390508181111561062c5761062b6105d2565b5b92915050565b5f61063c826103eb565b9150610647836103eb565b925082820190508082111561065f5761065e6105d2565b5b9291505056fea2646970667358221220df95c45f88f8e042efeaf2f1e5da3df24990e49979337578019e0adb8c71010864736f6c634300081c0033",
  "linkReferences": {},
  "deployedLinkReferences": {},
  "immutableReferences": {},
  "inputSourceName": "project/contracts/BTC.sol",
  "buildInfoId": "solc-0_8_28-1955d251ea514593493e3d440b4892cd2617c4fc"
}